:100000000C94E8080C9431090C9431090C943109D2
:100010000C9431090C9431090C9431090C94310978
:100020000C9431090C9431090C94C7290C949E2A24
:100030000C944C200C9431090C9431090C94310926
:100040000C9431090C9431090C9431090C94310948
:100050000C9431090C94AD200C9431090C943109A5
:100060000C9431090C9431090C9431090C94310928
:100070000C9431090C9431090C9431090C94310918
:100080000C9431090C9431090C9431090C94310908
:100090000C9431090C94310900003A003B003C00FB
:1000A00000003D003E0000004A004D004C004600AC
:1000B0004800A6005F0060006100550029001E0096
:1000C0001F0020002100220023002400250026001C
:1000D00027002D0023022A005C005D005E00540012
:1000E0002B0014001A000800150017001C0018004F
:1000F0000C00120013002F003000280059005A0095
:100100005B005600E00004001600070009000A002A
:100110000B000D000E000F0033003302340000000E
:100120006200630036005700E1001D001B0006005E
:1001300019000500110010002D02360037003800AC
:10014000E50000000000000052000000390000003F
:10015000E2000000000000002C0000000000E600AB
:10016000E4000000000000005000510000004F00BB
:1001700000003F004000410000004200430000003A
:10018000A900AA00A8004400450000700100010079
:100190000100010001001E021F02200221022202B2
:1001A000240235002602270201002E00350201003C
:1001B0000100010001000100010001000100010037
:1001C0000100010001000100010001000100010027
:1001D0000100010001000100010001000100010017
:1001E0000100010001000100010001000100010007
:1001F0002E0225023402000001000100010001006E
:1002000001000100010001000100010001000100E6
:10021000010036023702310001000000000000003A
:100220004B00000001000000010000000000000081
:1002300001000000000001000100000000000000BB
:100240004A004E0000004D000000010001000100C6
:100250000000010001000000010001000100010098
:100260000100010001000100010001000100010086
:100270000100010001000100010001000100010076
:100280000100010001000100010001000100010066
:100290000100010001000100010001000100010056
:1002A0000100010001000100010001000100010046
:1002B0000100010001000100010001000100010036
:1002C0000100010001000100010001000100000027
:1002D0000100010001000100010001000100010016
:1002E0000100010001000100010001000100010006
:1002F00001000000000000000100000001000000FB
:1003000001000000000000000100000000000100EA
:1003100001000000000000000100010000000100D9
:1003200000000100010001000000010001000000C8
:1003300001000100010001000100010001000100B5
:1003400001000100010001000100010001000100A5
:100350000100010001000100010001000100010095
:100360000100010001000100010001000100010085
:100370000100010001000100010001000100010075
:100380000100010001000100010001000100010065
:100390000100010001000100010001000100010055
:1003A0000100010001000000010001000100010046
:1003B0000100010001000100010001000100010035
:1003C0000100010001000100010000000000000028
:1003D000010000000100000001000000000000001A
:1003E000010000000000010001000000000000000A
:1003F00001000100000001000000010001000100F7
:1004000000000100010000000100010001000100E6
:1004100001000100010001000100010001000100D4
:1004200001000100010001000100010001000100C4
:1004300001000100010001000100010001000100B4
:1004400001000100010001000100010001000100A4
:100450000100010001000100010001000100010094
:100460000100010001000100010001000100010084
:100470000100010001000100010001000100000075
:100480000100010001000100010001000100010064
:100490000100010001000100010001000100010054
:1004A0000100000000000000010000000100000049
:1004B0000100000000000000010000000000010039
:1004C0000100000000000000010001000000010028
:1004D0000000010001000100000001000100000017
:1004E0000100010001000100010001000100010004
:1004F00001000100010001000100010001000100F4
:1005000001000100010001000100010001000100E3
:1005100001000100010001000100010001000100D3
:1005200001000100010001000100010001000100C3
:1005300001000100010001000100010001000100B3
:1005400001000100010001000100010001000100A3
:100550000100010001000000010001000100010094
:100560000100010001000100010001000100010083
:100570000100010001000100010000000000000076
:100580000100000001000000010000000000000068
:100590000100000000000100010000000000000058
:1005A0000100010000000100000001000100010045
:1005B0000000010001000000010001000100010035
:1005C0000100010001000100010001000100010023
:1005D0000100010001000100010001000100010013
:1005E0000100010001000100010001000100010003
:1005F00001000100010001000100010001000100F3
:1006000001000100010001000100010001000100E2
:1006100001000100010001000100010001000100D2
:1006200001000100010001000100010001000000C3
:1006300001000100010001000100010001000100B2
:1006400001000100010001000100010001000100A2
:100650000100000000000000010000000100000097
:100660000100000000000000010000000000010087
:100670000100000000000000010001000000010076
:100680000000010001000100000001000100000065
:100690000100010001000100010001000100010052
:1006A0000100010001000100010001000100010042
:1006B0000100010001000100010001000100010032
:1006C0000100010001000100010001000100010022
:1006D0000100010001000100010001000100010012
:1006E0000100010001000100010001000100010002
:1006F00001000100010001000100010001000100F2
:1007000001000100010000000100010001000100E2
:1007100001000100010001000100010001000100D1
:1007200001000100010001000100000000000000C4
:1007300001000000010000000100000000000000B6
:1007400001000000000001000100000000000000A6
:100750000100010000000100000001000100010093
:100760000000010001000000010001000100010083
:100770000100010001000100010001000100010071
:100780000100010001000100010001000100010061
:100790000100010001000100010001000100010051
:1007A0000100010001000100010001000100010041
:1007B0000100010001000100010001000100010031
:1007C0000100010001000100010001000100010021
:1007D0000100010001000100010001000100000012
:1007E0000100010001000100010001000100010001
:1007F00001000100010001000100010001000100F1
:1008000001000000000000000100000001000000E5
:1008100001000000000000000100000000000100D5
:1008200001000000000000000100010000000100C4
:1008300000000100010001000000010001000000B3
:1008400001000100010001000100010001000100A0
:100850000100010001000100010001000100010090
:100860000100010001000100010001000100010080
:100870000100010001000100010001000100010070
:100880000100010001000100010001000100010060
:100890000100010001000100010001000100010050
:1008A0000100010001000100010001000100010040
:1008B0000100010001000000010001000100010031
:1008C0000100010001000100010001000100010020
:1008D0000100010001000100010000000000000013
:1008E0000100000001000000010000000000000005
:1008F00001000000000001000100000000000000F5
:1009000001000100000001000000010001000100E1
:1009100000000100010000000100010001000100D1
:1009200001000100010001000100010001000100BF
:1009300001000100010001000100010001000100AF
:10094000010001000100010001000100010001009F
:10095000010001000100010001000100010001008F
:10096000010001000100010001000100010001007F
:10097000010001000100010001000100010001006F
:100980000100010001000100010001000100000060
:10099000010001000100010001000100010001004F
:1009A000010001000100010001000100010001003F
:1009B0000100000000000000010000000100000034
:1009C0000100000000000000010000000000010024
:1009D0000100000000000000010001000000010013
:1009E0000000010001000100000001000100000002
:1009F00001000100010001000100010001000100EF
:100A000001000100010001000100010001000100DE
:100A100001000100010001000100010001000100CE
:100A200001000100010001000100010001000100BE
:100A300001000100010001000100010001000100AE
:100A4000010001000100010001000100010001009E
:100A5000010001000100010001000100010001008E
:100A6000010001000100000001000100010001007F
:100A7000010001000100010001000100010001006E
:100A80000100010001000100010000000000000061
:100A90000100000001000000010000000000000053
:100AA0000100000000000100010000000000000043
:100AB0000100010000000100000001000100010030
:100AC0000000010001000000010001000100010020
:100AD000010001000100010001000100010001000E
:100AE00001000100010001000100010001000100FE
:100AF00001000100010001000100010001000100EE
:100B000001000100010001000100010001000100DD
:100B100001000100010001000100010001000100CD
:100B200001000100010001000100010001000100BD
:100B300001000100010001000100010001000000AE
:100B4000010001000100010001000100010001009D
:100B5000010001000100010001000100010001008D
:100B60000100000000000000010000000100000082
:100B70000100000000000000010000000000010072
:100B80000100000000000000010001000000010061
:100B90000000010001000100000001000100000050
:100BA000010001000100010001000100010001003D
:100BB000010001000100010001000100010001002D
:100BC000010001000100010001000100010001001D
:100BD000010001000100010001000100010001000D
:100BE00001000100010001000100010001000100FD
:100BF00001000100010001000100010001000100ED
:100C000001000100010001000100010001000100DC
:100C100001000100010000000100010001000100CD
:100C200001000100010001000100010001000100BC
:100C300001000100010001000100000000000000AF
:100C400001000000010000000100000000000000A1
:100C50000100000000000100010000000000000091
:100C6000010001000000010000000100010001007E
:100C7000000001000100000001000100010001006E
:100C8000010001000100010001000100010001005C
:100C9000010001000100010001000100010001004C
:100CA000010001000100010001000100010001003C
:100CB000010001000100010001000100010001002C
:100CC000010001000100010001000100010001001C
:100CD000010001000100010001000100010001000C
:100CE00001000100010001000100010001000000FD
:100CF00001000100010001000100010001000100EC
:100D000001000100010001000100010001000100DB
:100D100001000000000000000100000001000000D0
:100D200001000000000000000100000000000100C0
:100D300001000000000000000100010000000100AF
:100D4000000001000100010000000100010000009E
:100D5000010001000100010001000100010001008B
:100D6000010001000100010001000100010001007B
:100D7000010001000100010001000100010001006B
:100D8000010001000100010001000100010001005B
:100D9000010001000100010001000100010001004B
:100DA000010001000100010001000100010001003B
:100DB000010001000100010001000100010001002B
:100DC000010001000100000001000100010001001C
:100DD000010001000100010001000100010001000B
:100DE00001000100010001000100000000000000FE
:100DF00001000000010000000100000000000000F0
:100E000001000000000001000100000000000000DF
:100E10000100010000000100643214643214783CC7
:100E20001E1E140A05000000000101010202030455
:100E300005050607090A0B0C0E0F111214151719D8
:100E40001B1D1F212325282A2C2F313436393B3EE8
:100E5000414346494C4F5255585A5D6164676A6D2B
:100E6000707376797C7F8386898C8F9295989B9E10
:100E7000A2A5A7AAADB0B3B6B9BCBEC1C4C6C9CB02
:100E8000CED0D3D5D7DADCDEE0E2E4E6E8EAEBED7B
:100E9000EEF0F1F3F4F5F6F8F9FAFAFBFCFDFDFEDD
:100EA000FEFEFFFFFFFFFFFFFFFEFEFEFDFDFCFB62
:100EB000FAFAF9F8F6F5F4F3F1F0EEEDEBEAE8E61C
:100EC000E4E2E0DEDCDAD7D5D3D0CECBC9C6C4C1EC
:100ED000BEBCB9B6B3B0ADAAA7A5A29E9B98959289
:100EE0008F8C898683807C797673706D6A67646184
:100EF0005D5A5855524F4C494643413E3B39363472
:100F0000312F2C2A282523211F1D1B1917151412D8
:100F1000110F0E0C0B0A0907060505040302020156
:100F200001010000000000000000010101010101B9
:100F30000101010202020202020202020303030390
:100F4000030303030404040404040505050505065E
:100F50000606060607070707080808080909090A18
:100F60000A0A0A0B0B0B0C0C0C0D0D0D0E0E0F0FBD
:100F70000F10101111111212131314141515161647
:100F80001717181819191A1A1B1C1C1D1D1E1F1FB4
:100F900020202122222324252526272728292A2B01
:100FA0002B2C2D2E2F2F3031323334353636373827
:100FB000393A3B3C3D3E3F40414243444647484925
:100FC0004A4B4C4D4F50515253555657585A5B5CF3
:100FD0005E5F606263646667696A6C6D6E70717390
:100FE000747678797B7C7E8081838486888A8B8DF9
:100FF0008F91929496989A9B9D9FA1A3A5A7A9AB28
:10100000ADAFB1B3B5B7B9BBBDBFC1C4C6C8CACC1B
:10101000CFD1D3D6D8DADCDFE1E4E6E8EBEDF0F2CD
:10102000F5F7FAFCFF12036B006500790062006FB0
:10103000006100720064000000160371006D006B17
:10104000006200750069006C0064006500720000B9
:10105000000403090409026D00040100A0FA090458
:1010600000000103010100092111010001224000DB
:101070000705810308000A090401000103010200B9
:10108000092111010001224D000705820308000A11
:1010900009040200010300000009211101000122DE
:1010A00036000705830308000A0904030001030052
:1010B00000000921110100012239000705840320E5
:1010C00000011201100100000008EDFE6060010047
:1010D0000102000105010906A101050719E029E740
:1010E00015002501950875018102050819012905DA
:1010F0009505750191029501750391010507190088
:1011000029F71500250195F875018102C00501092F
:1011100080A10185021601002603001A81002A839E
:1011200000751095018100C0050C0901A10185031E
:10113000160100269C021A01002A9C0275109501D6
:101140008100C005010902A1010901A100050919D9
:101150000129051500250195057501810295017587
:101160000381010501093009311581257F9502753B
:1011700008810609381581257F95017508810605C6
:101180000C0A38021581257F950175088106C0C0BB
:1011900005010906A101050719E029E71500250148
:1011A00095087501810295017508810105081901ED
:1011B00029059505750191029501750391010507B2
:1011C000190029FF150026FF00950675088100C04B
:1011D00011241FBECFEFD0E2DEBFCDBF04B603FEA9
:1011E00027C08091B0029091B102A091B202B0915B
:1011F000B3028730904BA740B04BD1F41092B002AD
:101200001092B1021092B2021092B30214BE84B7CF
:10121000877F84BF0FB6F894A8958091600088619D
:1012200080936000109260000FBEE0E0FCEF099533
:1012300011E0A0E0B1E0E4E6FCE500E00BBF02C095
:1012400007900D92A034B107D9F722E0A0E4B1E0F5
:1012500001C01D92A03BB207E1F70E9418270C9431
:10126000FB2D0C94000090E080E00895089508950F
:1012700081E0089581FF07C0239A2B9884FF05C061
:10128000249A2C9808952398F8CF2498FACF81E0D7
:1012900008950C9438090E9473182FEF84E39CE0A2
:1012A000215080409040E1F700C000000C94D02015
:1012B000EF92FF920F931F93CF93DF937C01DC019A
:1012C0000D911C9111978091BB01811143C0129621
:1012D0008C918823D1F1C8010E94F81DC82F682F76
:1012E000C8010E94A11DB8018C2F0E94EE0AEC01DA
:1012F000B7010E944909882309F468C0B701CE01EB
:101300000E94260D882309F461C0CE33B0E7DB07C5
:1013100070F4C433E0E7DE0710F5C130F0E7DF0713
:1013200009F45CC050F5C115D04709F44AC081E00A
:101330008093420180934301C701DF91CF911F91B8
:101340000F91FF90EF900C944709C8010E94CF1DA8
:10135000C82FC9CFC8010E94F81DB801C6CFFE0131
:10136000E553F047D70112968C91E930F10508F06A
:1013700040C0E350F24D0C94A52DCE018250904711
:101380004397A8F6F70182818823B1F20E94BF1F1C
:10139000811102C00E94991F0E94DC1F90E090936F
:1013A000A1028093A002FE01E350F0478091A002C9
:1013B0008160E231F10508F047C0EA5FF14D0C941D
:1013C000A52DF701828181110E944B0980E0DF91F8
:1013D000CF911F910F91FF90EF900895D701129632
:1013E0008C91882399F380916702816080936702D2
:1013F000EDCF882359F30E94B011E8CF882331F351
:101400000E94A611E3CF882309F30E948310DECF48
:101410008823E1F20E949B10D9CF8823B9F20E9461
:10142000BA10D4CF882391F20E94D210CFCF882354
:1014300069F20E94EA10CACF882341F20E94021189
:10144000C5CF8091A00282608093A0028091A0020B
:101450000E94E01F0E947318B9CF8091A00284609F
:10146000F3CF8091A0028860EFCF8091A0028061CD
:10147000EBCF8091A0028062E7CF8091A0028064D0
:10148000E3CF8091A0028068DFCF8091A0028C60C2
:10149000DBCF8091A0028E7FD7CF8091A0028D7F7D
:1014A000D3CF8091A0028B7FCFCF8091A002877F86
:1014B000CBCF8091A0028F7EC7CF8091A0028F7D7D
:1014C000C3CF8091A0028F7BBFCF8091A0028F7786
:1014D000BBCF8091A002837FB7CF9091A002892FCC
:1014E00097FB87F98058B0CF882361F010924201B2
:1014F0000E947C20909341018093400182E00E94F1
:10150000B81564CF8091420181110FC080914001D4
:10151000909141010E948820883C910530F486E238
:101520000E948D1486E20E94691582E00E94BF1518
:101530004DCF882351F0109243010E947C2090935C
:1015400041018093400180E2DACF80914301811113
:101550000FC080914001909141010E948820883CF9
:10156000910530F487E20E948D1487E20E9469158C
:1015700080E2DCCF0C94770D269A2E988FEF9FEFA8
:10158000909387008093860082E28093800089E1B7
:10159000809381000C94DB240E94BC0A0C94750D8E
:1015A0002E9881110AC0809180008F7D80938000E9
:1015B00010928B0010928A000895809180008062C2
:1015C000809380008FEF9FEF90938B0080938A0031
:1015D00008950C943A090C94E90A0895972F70E045
:1015E00022E1929F600D711D1124FB019CE6899FF1
:1015F000E00DF11D1124EE0FFF1FE856FF4F8591FE
:1016000094910895FC01EE0FFF1FE85EF14F859164
:10161000949108950E94EE0A0E94AA0C9C01211543
:1016200081E5380708F046C0211590E5390708F034
:101630000CC1283E310518F5203E3105C8F5283A81
:10164000310578F4253A310508F097C0213031058D
:1016500079F1C9010497813A910550F130E020E019
:1016600027C02D3B310508F493C0C901805C910966
:101670008032910598F70E94020B9C0119C0211538
:1016800080E3380770F4211590E2390708F0D7C0DD
:101690002F3F310509F060F4203F3105F8F2306545
:1016A00007C0211580E4380708F4CCC03F70306AC9
:1016B000C9010895211590E73907C8F5211580E67D
:1016C000380708F0FAC0211594E53907F0F4211520
:1016D00083E5380708F0D8C0211592E5390708F4EA
:1016E000CEC0C9018370992741E050E002C0440F89
:1016F000551F8A95E2F72695269580E2289F90014E
:101700001124242B352B3C68D3CF211595E53907BF
:1017100008F4CEC0C90195558F3F910511F008F02E
:101720009DCF322F222722273F713062C1CF213334
:1017300080E7380709F4C3C0A0F4203380E73807F6
:1017400048F4203290E7390708F488CF2052304718
:10175000346DAECF2033304709F080CF20E031ED3B
:10176000A7CF223390E7390709F4ACC023333047C1
:1017700009F074CF20E033ED9BCF253A310509F411
:10178000A4C0263A310509F0A3C022E830E490CF86
:10179000283A310509F49FC0293A310509F49EC061
:1017A0002A3A310509F49DC02B3A310509F49CC051
:1017B0002C3A310509F49BC02B3B310509F49AC042
:1017C0002C3B310509F499C02D3A310509F498C034
:1017D000203B310509F497C02E3A310509F496C033
:1017E0002F3A310509F495C0213B310509F494C025
:1017F000223B310509F493C0233B310509F492C023
:10180000243B310509F491C0253B310509F490C012
:10181000263B310509F48FC0273B310509F48EC002
:10182000283B310509F48DC0293B310509F48CC0F2
:101830002A3B310509F48BC020E034E439CFC901DB
:101840009F7019CF3327306C33CFC90154E0969580
:1018500087955A95E1F78370422F469546954370D8
:1018600090E2499FA0011124582B822F837021E020
:1018700030E002C0220F331F8A95E2F742CF322FA9
:101880002227216F306A14CFC9018370992741E064
:1018900050E002C0440F551F8A95E2F72695269521
:1018A00080E2289F90011124242B352B3A6800CF29
:1018B000322F2227246F306AFBCE3F7036CF20E0D4
:1018C00030EDF6CE20E032EDF3CE21E830E4F0CE7C
:1018D00023E830E4EDCE22EE34E4EACE29EE34E41F
:1018E000E7CE2AEE34E4E4CE25EB34E4E1CE26EB79
:1018F00034E4DECE23EB34E4DBCE24EB34E4D8CE88
:1019000027EB34E4D5CE2CEC34E4D2CE2DEC34E409
:10191000CFCE23E835E4CCCE2AE835E4C9CE22E99F
:1019200035E4C6CE24E935E4C3CE21E236E4C0CEA8
:1019300023E236E4BDCE24E236E4BACE25E236E434
:10194000B7CE26E236E4B4CE27E236E4B1CE2AE2C0
:1019500036E4AECE803E910581F1C8F48133910525
:1019600009F462C048F48932910509F456C08A32FC
:10197000910509F460C0089589339105B9F0823862
:101980009105A1F08533910509F440C00895863E84
:10199000910561F138F4823E9105B1F0833E9105E5
:1019A000E1F00895873E910551F108952091A0023C
:1019B0002370D9F080EE90E008952091A00220FFDE
:1019C00014C089E390E008952091A00222FF0DC089
:1019D00024FD09C083EE90E008952091A00222FD2D
:1019E00031C024FF02C090E080E008952091A00261
:1019F00023FFFBCF24FDF7CF87EE90E008952091E1
:101A0000A00223FFEECF86EE90E008952091A00281
:101A100025FFEBCF89E290E008952091A00225FFF9
:101A2000E4CF85E390E008952091A00226FFDDCF6A
:101A30008AE290E008952091A00226FFD6CF81E3AC
:101A400090E0089582EE90E0089508950F931F931B
:101A5000CF938C01FB018281811106C0C1E08C2FE4
:101A6000CF911F910F910895C0915101C11125C0CF
:101A70000531104799F70E94250D81E080935101AF
:101A80000E947C209093500180934F01109244015A
:101A900010924601109245011092480110924701A0
:101AA00010924A011092490110924C0110924B0180
:101AB00010924E0110924D01D2CF80914F01909122
:101AC00050010E948820883C910540F68091440195
:101AD000E82FF0E0EE0FFF1FEB5BFE4F118300835A
:101AE0008F5F80934401C0E0BACF0C9436090C9408
:101AF000370985B7806885BF85B7806885BFA6E24E
:101B0000B1E061E070E08D91E82FE295EF70F0E0D8
:101B100041A18F709B0101C0220F8A95EAF7922F95
:101B20009095942391A382A1822B82A381E0AC3271
:101B3000B80749F7A4E1B1E061E070E08D91E82FCA
:101B4000E295EF70F0E041A18F709B0101C0220F80
:101B50008A95EAF7922F9095942391A382A1822BE4
:101B600082A381E0A632B80749F7EAE6F1E0A2E5F0
:101B7000B1E082E891E011921192119211921D92BE
:101B80001D921D921D928E179F07A9F70C94CC0AE7
:101B90002F923F924F925F926F927F928F929F927D
:101BA000AF92BF92CF92DF92EF92FF920F931F936B
:101BB000CF93DF93CDB7DEB72B970FB6F894DEBF88
:101BC0000FBECDBF82E5282E81E0382E06E211E05F
:101BD0001E830D8338862F82C12CD12C7601C394AD
:101BE000AF81B8858D909D90AD90BD90B887AF8343
:101BF000FD011292129212921292FB87EA87AD8136
:101C0000BE818D91BE83AD83E82FE295EF70F0E049
:101C100091A18F7001E010E002C0000F111F8A95A2
:101C2000E2F71A830983802F892B81A382A1009573
:101C30000987802382A310EA1A95F1F724E131E0A5
:101C40003C832B8390E080E0AB81BC817D90BC83A2
:101C5000AB83272D22952F7030E0D90190965C90B0
:101C6000AA85BB854D915D916D917C91272D2F703B
:101C700001E010E002C0000F111F2A95E2F7980161
:101C8000252109F07AC097018601082E04C0000FB3
:101C9000111F221F331F0A94D2F72801390144294A
:101CA000552966297729AA85BB854D935D936D9348
:101CB0007C93139701968231910531F681A11985A4
:101CC000182311A382A1B9818B2B82A3EA85FB85FE
:101CD00080819181A281B38188169906AA06BB06EC
:101CE00049F0F1E0F09382010E947C2090938401FE
:101CF000809383010F8118850A56114009F070CF37
:101D0000809182018823E9F0809183019091840180
:101D10000E9488200697A8F02AE631E0F10181911F
:101D20009191A191B1911F01F90181939193A19397
:101D3000B1939F01FAE62F16F1E03F0679F7109272
:101D400082010E94BA0A81E02B960FB6F894DEBF9A
:101D50000FBECDBFDF91CF911F910F91FF90EF90FC
:101D6000DF90CF90BF90AF909F908F907F906F90BB
:101D70005F904F903F902F900895412C512C32014D
:101D80008ECFCF93DF9300D000D0CDB7DEB794E0F5
:101D9000899FF0011124E659FE4F80819181A28133
:101DA000B381BC01CD010F900F900F900F90DF9188
:101DB000CF91089508959C01CB0165B1542F5095A2
:101DC000562365B1462B6FB7F894820F931F2817DF
:101DD000390711F46FBF0895F90171919F01E8E08F
:101DE00045B9000000C077FF55B9770F000000C06B
:101DF00000C000C055B900C0EA9591F7E8CFFC01DA
:101E000094B1942B94B99B01220F331F620F731F5F
:101E1000CF010E94DB0E87EC90E00197F1F700C044
:101E20000000089540E20C94FF0EAF92BF92CF9253
:101E3000DF92EF92FF920F931F93CF93DF937C017A
:101E4000E901842F242F662309F43FC0C42ED12C2E
:101E50008FEF90E0861B9109489F8001499F100DEC
:101E60001124212F812F9927C81AD90A9CE3A92E62
:101E7000B12CC701B5010E947D2DFB01BC01C69E9E
:101E8000C001C79E900DD69E900D1124B5010E94F1
:101E90007D2DE330F10509F443C080EFE816F1042D
:101EA00068F4E130F10591F13297A1F18CE3E81685
:101EB000F10440F180E020E040E007C0E430F105AB
:101EC00099F1842F861B3597A9F7E42FF0E0EB5D9D
:101ED000F04F4491E22FF0E0EB5DF04F9491E82F4A
:101EE000F0E0EB5DF04FE49149839883EA83DF9162
:101EF000CF911F910F91FF90EF90DF90CF90BF9007
:101F0000AF900895812F262F210FDFCF812F242F0F
:101F1000461BDBCF862F810FE42F412F2E2FD5CFED
:101F2000E42FE61B842FF9CF842F462F410FCDCF0E
:101F300088E090E00C94BB2DAB01BC0188E090E000
:101F40000C94D92DCF93DF9300D000D0CDB7DEB75E
:101F5000E4E9F2E083E0808311828FEF8283838360
:101F60008091940290919502A0919602B09197026F
:101F700089839A83AB83BC83BC01CD010F900F9002
:101F80000F900F90DF91CF910C949C0F70E060E068
:101F90008CE992E00C94120FEF92FF920F931F9333
:101FA000CF93DF9300D00F92CDB7DEB7182FE92E75
:101FB000F62E042F8091940290919502A0919602A2
:101FC000B09197028093980290939902A0939A02FD
:101FD000B0939B028091940280FF1CC09E012F5FF2
:101FE0003F4F812F9E2D0E94150F8091980210FB6C
:101FF00087F9809398021695809199028078182B22
:10200000E0FA17F910939902F0929A0200939B025A
:102010000E94C60F0F900F900F90DF91CF911F91EC
:102020000F91FF90EF9008950F931F93CF93DF933D
:1020300000D000D00F92CDB7DEB789839D83062FE5
:10204000142F8091940280FF54C0982F9E77923075
:1020500091F589819D810E94CC0F80919402B98174
:10206000B0FB87F980939402B695809195028078B1
:10207000B82B8D8180FBB7F9B0939502009396023F
:10208000109397028091940290919502A0919602EC
:10209000B091970289839A83AB83BC83BC01CD0145
:1020A0000F900F900F900F900F90DF91CF911F9195
:1020B0000F910C949C0F982F96959F732EE3290FE8
:1020C0002F73243018F410919702C7CF965C9F733A
:1020D000993018F6881F8827881F909195029D8354
:1020E000990F982B9983AD81A7FBAA27A0F9AD83FF
:1020F000B4CF0F900F900F900F900F90DF91CF9172
:102100001F910F910895E4E9F2E02081221F222718
:10211000221F30919502432F440F842F822B37FBCF
:10212000992790F9089668E671E00E94912D438105
:1021300062810C94141020919402221F2227221FE6
:1021400030919502432F440F842F822B37FB992720
:1021500090F98830910540F4805A9E4F4091970243
:10216000609196020C941410089768E671E00E9442
:10217000912DF4CF60919602683F90F4685F809152
:102180009402881F8827881F90919502292F220F7B
:1021900097FB992790F940919702822B0C94141089
:1021A0006FEFEDCF60919602683090F068508091AB
:1021B0009402881F8827881F90919502292F220F4B
:1021C00097FB992790F940919702822B0C94141059
:1021D00060E0EDCF40919702483F90F4485F8091D6
:1021E0009402881F8827881F90919502292F220F1B
:1021F00097FB992790F960919602822B0C9414100A
:102200004FEFEDCF40919702483090F048508091C9
:102210009402881F8827881F90919502292F220FEA
:1022200097FB992790F960919602822B0C941410D9
:1022300040E0EDCFCF93DF9300D000D0CDB7DEB735
:102240009091940290FF47C09178811132C09260C2
:10225000909394028091940290919502A09196029D
:10226000B091970289839A83AB83BC83BC01CD0173
:102270000E949C0F80919402982F9E77923009F5CE
:1022800010929A01881F8827881F90919502292F04
:10229000220F97FB992790F940919702609196023F
:1022A000822B0F900F900F900F90DF91CF910C9495
:1022B0001410893110F09063CBCF8F73880F982B57
:1022C000C7CF982F9695925C9F739631D8F691E080
:1022D00090939A01D7CF0F900F900F900F90DF91AE
:1022E000CF9108958091670281608093670281E0B9
:1022F00080939B010E94BF1F811104C00E94991FFF
:102300000E94A20F0E94980F60939402709395020E
:1023100080939602909397026E7761F40E94A20FC9
:102320000E94980F60939402709395028093960296
:102330009093970281E080939A018091940280FFAC
:1023400004C086958F730C941A110895809194029D
:1023500086958F738F5F893108F081E00C941A1194
:10236000CF93DF9300D000D0CDB7DEB79091940229
:10237000892F8E7F90FF81608093940280919402D8
:1023800090919502A0919602B091970289839A83C9
:10239000AB83BC83BC01CD010E949C0F8091940251
:1023A00080FF0AC086958F730F900F900F900F904B
:1023B000DF91CF910C941A1110929A019FEFA0E730
:1023C000B2E09150A040B040E1F700C000000F9093
:1023D0000F900F900F90DF91CF910C94C60FCF9379
:1023E000C82F80919801909199010E948820EC2F2C
:1023F000F0E0EF5DF14FE491E817190609F010F5F0
:102400000E947C209093990180939801E09197011C
:10241000F0E0EB5DF14F449180919402881F882792
:10242000881F90919502292F220F97FB992790F9E9
:1024300060919602822B0E94CC0F809197018F5F52
:1024400080939701CF910895CF93C82F80919501E4
:10245000909196010E948820EC2FF0E0E25EF14F0F
:10246000E491E817190609F0E8F40E947C209093A3
:102470009601809395014091970260919602809118
:102480009301909194010E94CC0F809193019091BF
:102490009401019668E671E00E947D2D909394016D
:1024A00080939301CF910895CF93C82F809191018C
:1024B000909192010E948820EC2FE695F0E0E25E78
:1024C000F14FE491E817190609F0B8F40E947C2056
:1024D00090939201809391010E94C60F80918F0189
:1024E00090919001C0FF0BC0019668E671E00E94D8
:1024F0007D2D9093900180938F01CF910895019746
:10250000F8CFCF93DF93C82FDFEF80FFD1E080912A
:102510008D0190918E010E948820C695EC2FF0E0ED
:10252000E55EF14FE491E817190609F088F40E947E
:102530007C2090938E0180938D010E94C60FD13034
:1025400061F480918C01811106C08FEF80938C0122
:10255000DF91CF9108958150F9CF0E94AE2DCF9396
:10256000C82F80918A0190918B010E948820EC2FC6
:10257000F0E0E85EF14FE491E817190609F0B0F4D5
:102580000E947C2090938B0180938A010E94C60F49
:102590009091000180918901913071F48A3F44F457
:1025A00089EF809389018FEF80930001CF91089587
:1025B000815080938901FACF87302CF086E0809398
:1025C000890181E0F1CF8F5FF4CF809187019091F5
:1025D00088010E948820883E934098F00E947C20C9
:1025E0009093880180938701809185019091860165
:1025F00001968170992790938601809385010C94B0
:10260000C60F089580919A01882371F180919402F8
:1026100086958F739EE3980F9F73943018F48250C1
:102620000C94EF119AE3980F9F73933018F486502F
:102630000C94241297E3980F9F73963018F48950E6
:102640000C94541291E3980F9F73963018F48F50A6
:102650000C9481129BE2980F9F73933018F485516C
:102660000C94AF120C94E51208959093A1018093FD
:10267000A0010895E091A001F091A101309721F00F
:102680000190F081E02D099480E00895E091A0018F
:10269000F091A101309721F00280F381E02D09949F
:1026A0000895E091A001F091A101309721F00480FC
:1026B000F581E02D0994089520919E0130919F01AC
:1026C0002817390771F090939F0180939E01E09144
:1026D000A001F091A101309721F00680F781E02D53
:1026E0000994089520919C0130919D012817390784
:1026F00071F090939D0180939C01E091A001F09175
:10270000A101309721F00084F185E02D099408950E
:1027100008950C9488130E9473200E94790D0E94E2
:102720003C210E94DB240C9472114F925F926F92B5
:102730007F929F92AF92BF92CF92DF92EF92FF92E1
:102740000F931F93CF93DF9300D000D00F92CDB79C
:10275000DEB70E94C80D23EAA22E21E0B22E10E0BF
:1027600000E0902E802F0E94C10E6B017C01F501CC
:1027700041905190619071905F014C145D046E0422
:102780007F0409F475C08091670281FD0E94DA0E12
:1027900090E080E04C245D246E247F24B301A201EC
:1027A000082E04C076956795579547950A94D2F7F9
:1027B00040FF59C089839A82412C512C32014394A5
:1027C00004C0440C551C661C771C8A95D2F7C420A3
:1027D000D520E620F72081E0CD28CE28CF2809F4A7
:1027E00080E08B830E947C208160782F9D838C8386
:1027F00049815A816B818D810E946414000F111FE1
:10280000000F111FF801ED55FE4F80819181A281CB
:10281000B38184259525A625B72580839183A2833E
:10282000B3830E94E9230E943A139091A201891771
:10283000B1F10E943A138093A2010F900F900F9074
:102840000F900F90DF91CF911F910F91FF90EF901C
:10285000DF90CF90BF90AF909F907F906F905F90F0
:102860004F900C94EB0A01968231910509F096CFB6
:102870000F5F1F4F0630110509F073CF8FEF89836B
:102880008A831B820E947C208160782F9D838C83A9
:1028900049815A816B818D810E946414C2CF0F904F
:1028A0000F900F900F900F90DF91CF911F910F918C
:1028B000FF90EF90DF90CF90BF90AF909F907F9070
:1028C0006F905F904F900895CF93DF93CDB7DEB7B1
:1028D0002B970FB6F894DEBF0FBECDBF4F8358873E
:1028E00069877A878B871E8285E0FE013796DE0135
:1028F000119601900D928A95E1F749815A816B8179
:102900007C818D819E812B960FB6F894DEBF0FBE21
:10291000CDBFDF91CF910C94FB1A882309F4D8C066
:10292000823871F40E943A1381FDD2C089E30E947B
:10293000A01E0E946A1F89E30E94DD1E0C946A1F7C
:10294000833859F40E943A1380FDC2C083E50E9487
:10295000A01E0E946A1F83E5EFCF843859F40E94BD
:102960003A1382FDB5C087E40E94A01E0E946A1F30
:1029700087E4E2CF9CEF980F913A18F40E94A01ED2
:10298000DDCF90E2980F983050F4877091E001C04D
:10299000990F8A95EAF7892F0E94211FCFCF9BE5D7
:1029A000980F933070F4853A31F0863A39F083E825
:1029B00090E00C945C1381E890E0FBCF82E890E01B
:1029C000F8CF98E5980F953108F082C0883A09F45D
:1029D00040C0893A09F440C08A3A09F440C08B3AB1
:1029E00009F440C08C3A09F440C08B3B09F440C064
:1029F0008C3B09F440C08D3A09F440C0803B09F497
:102A000040C08E3A09F440C08F3A09F440C0813B7F
:102A100009F440C0823B09F440C0833B09F440C044
:102A2000843B09F440C0853B09F440C0863B09F46F
:102A300040C0873B09F440C0883B09F440C0893B53
:102A400009F440C08A3B09F440C090E080E00C9457
:102A5000721382EE90E0FBCF89EE90E0F8CF8AEE21
:102A600090E0F5CF85EB90E0F2CF86EB90E0EFCFF2
:102A700083EB90E0ECCF84EB90E0E9CF87EB90E044
:102A8000E6CF8CEC90E0E3CF8DEC90E0E0CF83E8F4
:102A900091E0DDCF8AE891E0DACF82E991E0D7CF0B
:102AA00084E991E0D4CF81E292E0D1CF83E292E059
:102AB000CECF84E292E0CBCF85E292E0C8CF86E22F
:102AC00092E0C5CF87E292E0C2CF8AE292E0BFCF28
:102AD0000895882309F44BC0823871F40E943A1398
:102AE00081FF45C089E30E94A01E0E946A1F89E3FE
:102AF0000E94DD1E0C946A1F833859F40E943A1319
:102B000080FF35C083E50E94A01E0E946A1F83E5F6
:102B1000EFCF843859F40E943A1382FF28C087E42B
:102B20000E94A01E0E946A1F87E4E2CF9CEF980FCC
:102B3000913AF0F290E2980F983050F4877091E05B
:102B400001C0990F8A95EAF7892F0E94271FD2CFDB
:102B50009BE5980F933020F490E080E00C945C1398
:102B6000885A853120F490E080E00C947213089527
:102B7000882321F00E94211F0C946A1F0895882346
:102B800021F00E94271F0C946A1F08958F929F9234
:102B9000AF92BF92DF92EF92FF920F931F93CF936A
:102BA000DF9300D000D00F92CDB7DEB77C016D83EC
:102BB0007983FC01058102950F70128111110E9429
:102BC000401F0E94991ED82E882371F01123A1F076
:102BD0008D81805E883080F082E00E94831E0E949A
:102BE000991E91E0D82ED926E981E295EF70F0E0A8
:102BF000E85EF14D0C94A52DD12CF6CF09810F7014
:102C0000F981F07F11F00295007F1123B1F00023CC
:102C100061F08D81805E883018F02D81211109C00E
:102C2000802F0E94211F0E946A1F8D810E948D1497
:102C300015C0802F0E94321FF6CF8D810E9469152A
:102C4000002361F08D81805E883018F03D81311164
:102C500029C0802F0E94271F0E946A1FDD2009F4CF
:102C6000F3C10E94761E80FDEFC1F70112820E941F
:102C7000701E0E94B91CC7010E9435180E94701E68
:102C80000F900F900F900F900F90DF91CF911F91A9
:102C90000F91FF90EF90DF90BF90AF909F908F903B
:102CA0000C94DB1C802F0E94381FD6CF49814F70B7
:102CB000B42E5981507F503219F0B29480EFB8226F
:102CC0008D81882369F0813029F1112369F1002376
:102CD00059F0F701858180FFA8CF8F70858304C0EC
:102CE000112361F0011104C08B2D0E94B815B6CFDD
:102CF0008B2D0130D1F70E94541FB0CF011106C0B7
:102D00000E94571F8B2D0E94BF15A8CF013009F4D8
:102D1000A5CFF6CF112321F0063008F09FCFE4CFE6
:102D2000053008F09BCFEECF002361F38D810E9428
:102D3000691594CF898186958695837069F0813075
:102D400009F08CCF8D8199819370111102C090E0B0
:102D500080E00E94721382CF8D819981937011114E
:102D600002C090E080E00E945C1378CF8D81112337
:102D700029F00E94F7220E94DE2370CF0E945F2379
:102D8000FACF8981837009F05FC0111167CF2D815F
:102D9000229526952770220F220F8D818F7090E04B
:102DA000B0E0A0E04C015D01022E04C0880C991C2B
:102DB000AA1CBB1C0A94D2F7FD8160E070E0CB0135
:102DC000F4FF0FC06FE070E080E090E004C0660F99
:102DD000771F881F991F2A95D2F760957095809567
:102DE000909529812695269523702D832230B1F068
:102DF000233019F19B01AC01282939294A295B2983
:102E000029833A834B835C833D8169817A818B81FD
:102E10009C813130B1F00E94461C20CF9B01AC0157
:102E2000282939294A295B2929833A834B835C83E2
:102E3000CA01B9010E94701C11CF0E94461CC50135
:102E4000B4010E941C1C0ACF8695112311F08981C0
:102E50008170882309F402CF2D8122952695277051
:102E6000220F220F8D818F7090E0B0E0A0E04C0126
:102E70005D01022E04C0880C991CAA1CBB1C0A947C
:102E8000D2F73D8160E070E0CB0134FF0FC06FE00E
:102E900070E080E090E004C0660F771F881F991FE4
:102EA0002A95D2F7609570958095909549814695C1
:102EB000469543704D834230B1F0433019F19B0188
:102EC000AC01282939294A295B2929833A834B8374
:102ED0005C833D8169817A818B819C813130B1F045
:102EE0000E944C1DBBCE9B01AC01282939294A29DF
:102EF0005B2929833A834B835C83CA01B9010E9411
:102F0000761DACCE0E944C1DC501B4010E94221D4D
:102F1000A5CE3D81323F09F447C080F4303F79F1BE
:102F2000313FD9F1832F805E8031D0F0112309F435
:102F300056C001117ACE89818F7133C04D81433FD4
:102F4000D1F1443F99F7112309F43FC089818F7172
:102F500089830E94B91C63E089810E947A1E7ECE1B
:102F60005D815F705D8389818F71112321F00E94E3
:102F7000B91C8D81BACE0E94DB1C8D81C4CE112379
:102F800041F0053008F06ACE89818F710E94001DE2
:102F900065CE063008F062CEF7CF89818F7111239C
:102FA00039F00E94B91C5ACE89818F711123C9F35F
:102FB0000E94DB1C53CE112329F089818F710E945E
:102FC000A41C4CCE0E949A1C49CE81E00E94831E14
:102FD000023008F443CE82E00E94831E3FCE0111EE
:102FE000A5CE89818F71E4CF49814F706D81C70172
:102FF0000E9433090E94951B31CE11112FCEE98119
:10300000EF70E983E23099F028F4E1110DC00E94DD
:10301000ED2424CEF981F33069F0F43009F01ECEAE
:103020008D810E9444251ACE0E94F92417CE0E9459
:10303000122514CE0E94262511CE49814F706D8134
:10304000C7010E94ED0A0ACE0F900F900F900F90CB
:103050000F90DF91CF911F910F91FF90EF90DF9034
:10306000BF90AF909F908F9008950F931F93CF9331
:10307000DF93EC018B819C81892B29F088819981D8
:1030800089238F3F29F4DF91CF911F910F910895EC
:10309000CE010E9458098823B1F3688179818A8121
:1030A0000E94461E8C010E94A01D0E94111CB801A6
:1030B000CE01DF91CF911F910F910C94C6150E9404
:1030C000401F0E94511F0E94131F0E946A1F0E94EE
:1030D000CF240E94DE2390E080E00E945C1390E009
:1030E00080E00C9472130E942F1F0C945F180E94B2
:1030F0003A1E282F892F82958F70903C80F48A3059
:10310000B0F4843020F4823090F480E0089586306A
:10311000E1F781E0203E88F0213FB9F70EC08C3006
:1031200011F08F3091F793FB882780F9089581E0A3
:10313000203F39F018F4203E40F70895243F29F746
:10314000FCCF0895CF93DF9300D000D00F92CDB77E
:10315000DEB70F900F900F900F900F90DF91CF91EF
:103160000895CF93DF9300D000D000D0CDB7DEB765
:1031700026960FB6F894DEBF0FBECDBFDF91CF917C
:1031800008951F93CF93DF93E091BC0116E08091E7
:10319000BD018E1304C0DF91CF911F910895CE2FF2
:1031A000D0E01E9FF0011124E254FE4F4081518176
:1031B00062817381848195810E94B118FE013196EC
:1031C000E770E5CF4091EE015091EF016091F00181
:1031D0007091F1018091F2019091F3010C94B1187A
:1031E0001F93CF93DF938091F301807FC1F480918F
:1031F000F0018823A1F08091BC01C091BD016091D4
:10320000EE017091EF014091F1015091F201D62F42
:10321000D723DA01A095B09516E0C81304C0DF915A
:10322000CF911F91089590E04115510511F0DF3FB6
:1032300031F401968770F1CF2A0F3B1F17C0189FFA
:10324000F001199FF00D1124E254FE4F2181271344
:10325000F0CF20812613EDCF22812111EACF2381E7
:1032600034812417350740F3241B350B283C3105E6
:1032700000F72091F3012F7020612093F30126E0E5
:10328000289FF001299FF00D1124ED53FE4F8081FE
:103290008F70806180838EEE91E00E943518DF91FF
:1032A000CF911F910C94C1189F92AF92BF92CF9271
:1032B000DF92EF92FF920F931F93CF93DF93CDB7DF
:1032C000DEB72B970FB6F894DEBF0FBECDBF8C01D3
:1032D00085E0F801DE01179601900D928A95E1F7DD
:1032E000D8014C9111965C9111971296EC9012971F
:1032F0008091F1019091F201009709F46BC1209146
:10330000EE013091EF01632F62236F3F09F462C138
:103310001396CD90DC909090F001992009F4F8C0BC
:10332000C816D90608F43FC0F601E81BF90BCF0117
:10333000FF24F394883C910508F0F12C8EEEA82E22
:1033400081E0B82E8091F301982F907FFF2009F43F
:10335000B7C0911180C0FE2C35132AC0241328C099
:10336000E11026C08F7080618093F3010E94E21803
:10337000C5010E9435188091F301D80115968C93F0
:103380008F2D2B960FB6F894DEBF0FBECDBFDF9109
:10339000CF911F910F91FF90EF90DF90CF90BF9052
:1033A000AF909F900895809590958C0D9D1DC0CFF6
:1033B000CD2829F0842F85238F3F09F019C180E0A3
:1033C000B82FB170DB2EE091BC012091BD0136E039
:1033D00080FD1CC0EE20A1F28091F30181608093FA
:1033E000F301F12CCDCF8E2F90E03E9FF001112400
:1033F000E254FE4F6181651306C06081641303C00F
:1034000062816E11E7CFFC013196E770E213EBCFDA
:103410004F8358878F8198850E943A1E292F2295C5
:103420002F70903260F0225F2F70223078F49F70FE
:1034300051F0F8019581907F31F4D12C0AC09F7032
:1034400011F08823D1F3805E8830B8F3C8010E9460
:103450003518FD2C95CF351306C0241304C0D801B0
:10346000EE2009F47BC04F8358878F8198850E9496
:103470007718882309F4B8C0EE2009F4B5C080910C
:10348000F301803270F02091EE013091EF013A8328
:1034900029831B82DD82CC828E83CE0101960E941D
:1034A000351886E0F801AEEEB1E001900D928A95F4
:1034B000E1F70E94F0180E94E218FF24F39460CF15
:1034C000911113C07C2DDB86CA866E2D8B850E94E0
:1034D000A2188EEE91E00E94351886E0F501119257
:1034E0008A95E9F70E94E2184BCF3513BCCF24131D
:1034F000BACFE110B8CFD80115968C93C8010E94BD
:10350000351886E0F50111928A95E9F7F92C38CF44
:10351000C816D90688F1B601681B790BCB01F12CCE
:10352000883C910508F047C0FE2CEE2009F45CC0F1
:10353000351330C024132EC08091F30180FD21C0CB
:10354000982F907FF1F0D80115968C931597903FA6
:1035500039F0982F907F905F8F70892B15968C9300
:10356000C8010E94351886E0F801AEEEB1E0019086
:103570000D928A95E1F7B6CF809590958C0D9D1DA3
:10358000CECF86E0F801AEEEB1E001900D928A95C3
:10359000E1F7F6CE4F8358878F8198850E94771880
:1035A00081117FCF8091F30181608093F301C80185
:1035B0000E943518E5CE7C2DDB86CA866E2D8B8564
:1035C0000E94A21886E0EEEEF1E0DF011D928A95DE
:1035D000E9F788CFEE2041F04F8358878F81988597
:1035E0000E94771881115DCFC8010E94351865CF00
:1035F00081E08E25E5CE1F93CF93DF93CDB7DEB765
:103600002C970FB6F894DEBF0FBECDBF4F835887FF
:1036100069877A878B879C87CE0107960E94541909
:10362000882369F08A859B85892B39F04F815885DD
:10363000842F85238F3F09F071C016E05FC086E0BC
:10364000FE013796DE01119601900D928A95E1F701
:103650008A859B85892B89F388859F8189238F3F64
:1036600061F32091BD0130E0C9010196877099276F
:103670004091BC014817190671F40E94731810920A
:10368000BD011092BC0186E0EEEEF1E0DF011D927B
:103690008A95E9F7D2CF96E0929FD001939FB00D23
:1036A0001124A254BE4FFE01319601900D929A95BD
:1036B000E1F78093BD010E94C118BFCF819FC00177
:1036C000112482549E4F0E9454198823E9F0E091FE
:1036D000BC011E9FF0011124E254FE4F4081518134
:1036E00062817381848195810E94B1188091BC01AF
:1036F00090E00196877099278093BC018091BC016E
:103700009091BD018913DACF2C960FB6F894DEBFE5
:103710000FBECDBFDF91CF911F91089569857A8546
:103720008B859C850E94B11888CFEF92FF920F93F2
:103730001F93CF93DF938C01892B89F0F12CEE241A
:10374000E394E8012196F8018491843709F457C085
:10375000A0F4823009F43EC048F48130D1F0DF910A
:10376000CF911F910F91FF90EF9008959CEF980FCC
:103770009037A8F70E948D140AC0853709F44CC011
:103780009CE7980F903758F78F770E9469158E0144
:1037900016C00E5F1F4FFE01849190E2980F983083
:1037A00060F48770FE2D01C0FF0F8A95EAF78F2F16
:1037B0000E94431F0E946A1F02C00E948D148F2D19
:1037C000815008F4BECFEFE9FFE03197F1F700C078
:1037D0000000F6CF0E5F1F4FFE01849190E2980F1C
:1037E000983050F48770FE2D01C0FF0F8A95EAF7DC
:1037F0008F2F0E94491FDECF0E946915E0CF0E5F18
:103800001F4FFE01C491C150D0F28FE99FE0019794
:10381000F1F700C00000F7CF0E5F1F4FFE01F490DC
:10382000CECF089560933E0270933F028093400292
:10383000909341020C945F18CF93DF9300D000D097
:10384000CDB7DEB769837A838B839C8380913E02F8
:1038500090913F02A0914002B091410229813A81AA
:103860004B815C81822B932BA42BB52B80933E0242
:1038700090933F02A0934002B09341020F900F90AB
:103880000F900F90DF91CF910C945F18CF93DF933F
:1038900000D000D0CDB7DEB769837A838B839C8359
:1038A00080913E0290913F02A0914002B09141026E
:1038B00029813A814B815C8182239323A423B52300
:1038C00080933E0290933F02A0934002B093410246
:1038D0000F900F900F900F90DF91CF910C945F1885
:1038E000CF93DF9300D000D0CDB7DEB769837A8362
:1038F0008B839C8380913E0290913F02A091400275
:10390000B091410229813A814B815C8182279327C2
:10391000A427B52780933E0290933F02A0934002D4
:10392000B09341020F900F900F900F90DF91CF91C5
:103930000C945F1810923A0210923B0210923C02D3
:1039400010923D020C945F1841E050E060E070E09E
:1039500004C0440F551F661F771F8A95D2F7409306
:103960003A0250933B0260933C0270933D020C94E8
:103970005F18282F81E090E0A0E0B0E004C0880F3D
:10398000991FAA1FBB1F2A95D2F740913A02509166
:103990003B0260913C0270913D02842B952BA62B3B
:1039A000B72B80933A0290933B02A0933C02B093D2
:1039B0003D020C945F1841E050E060E070E004C00C
:1039C000440F551F661F771F8A95D2F74095509573
:1039D0006095709580913A0290913B02A0913C02D3
:1039E000B0913D0284239523A623B72380933A0206
:1039F00090933B02A0933C02B0933D020C945F185D
:103A0000282F81E090E0A0E0B0E004C0880F991F6B
:103A1000AA1FBB1F2A95D2F740913A0250913B0250
:103A200060913C0270913D0284279527A627B72715
:103A300080933A0290933B02A0933C02B0933D02E4
:103A40000C945F18CF93DF9300D000D0CDB7DEB7D2
:103A500069837A838B839C8380913A0290913B02A5
:103A6000A0913C02B0913D0229813A814B815C8159
:103A7000822B932BA42BB52B80933A0290933B027D
:103A8000A0933C02B0933D020F900F900F900F90C7
:103A9000DF91CF910C945F18CF93DF9300D000D0CB
:103AA000CDB7DEB769837A838B839C8380913A029A
:103AB00090913B02A0913C02B0913D0229813A8154
:103AC0004B815C8182239323A423B52380933A0204
:103AD00090933B02A0933C02B0933D020F900F9055
:103AE0000F900F90DF91CF910C945F18CF93DF93DD
:103AF00000D000D0CDB7DEB769837A838B839C83F7
:103B000080913A0290913B02A0913C02B0913D021B
:103B100029813A814B815C8182279327A427B5278D
:103B200080933A0290933B02A0933C02B0933D02F3
:103B30000F900F900F900F90DF91CF910C945F1822
:103B40000895E82F22E1929FE00D11248E2F8770B7
:103B500041E001C0440F8A95EAF7E695E695E695BF
:103B600085E0E89FF0011124EC50FE4F30E020E0AA
:103B700070E05191DF011197CB01022E02C09695A2
:103B800087950A94E2F7817081958527842385279C
:103B90008C932F5F3F4F2530310559F70895E82F5B
:103BA00022E1929FE00D11249E2F9770E695E695F5
:103BB000E69585E0E89FF0011124EC50FE4F50E0BF
:103BC00040E080E0219130E0092E02C03695279533
:103BD0000A94E2F721703327042E01C0220F0A94C1
:103BE000EAF7822B4F5F5F4F4530510559F7089533
:103BF000BF92CF92DF92EF92FF920F931F93CF93DA
:103C0000DF938C01C0903A02D0903B02E0903C02DE
:103C1000F0903D0280913E0290913F02A0914002BF
:103C2000B0914102C82AD92AEA2AFB2ACFE1D0E082
:103C3000BC2ED701C6010C2E04C0B695A79597954A
:103C400087950A94D2F780FD0EC0219788F7B12C92
:103C50008B2DDF91CF911F910F91FF90EF90DF900F
:103C6000CF90BF900895B8018C2F0E940A0B019746
:103C700061F3EECFCF93DF93D82FC92F0E94F81DA9
:103C80006D2F7C2FDF91CF910C940A0B1F93CF9354
:103C9000DF93162FD72F9091BB01992339F0862FF0
:103CA000972FDF91CF911F910C943A1E882391F0AA
:103CB000862F972F0E94F81DC82F682F812F9D2FC8
:103CC0000E94A11D612F7D2F8C2FDF91CF911F911D
:103CD0000C940A0B862F972F0E94CF1DC82FF2CF6E
:103CE000809142028595859585950895809142023F
:103CF0008770089598E0899F90011124622B60934A
:103D000042020C94B91C90914202809589238093C1
:103D10004202282F277061F4282F082E000C330B45
:103D20009217130629F08595859585950C94DB1CD3
:103D3000089590914202977081E009F480E008951F
:103D4000909113019923E1F09091A00297FF18C080
:103D5000E82FE695E695E695EF3139F120910101DE
:103D600030910201E20FF32FF11D877021E030E066
:103D700001C0220F8A95EAF78181822B8183089501
:103D80002091010130910201F90132969FEF40E04C
:103D90005191851751F09F3F19F4511101C0942F93
:103DA0004F5F4E31A9F79F3F09F40895290F311D48
:103DB00097FD3A95F9018283089590911301992313
:103DC00001F19091A00297FF1CC0E82FE695E695BF
:103DD000E695EF3139F12091010130910201E20FB6
:103DE000F32FF11D877021E030E0A90102C0440FDC
:103DF000551F8A95E2F7CA018095918189238183B5
:103E000008952091010130910201F9013296205E5E
:103E10003F4F9191891303C0DF0111971C92E21764
:103E2000F307B9F7089581E090E0E0910101F09186
:103E30000201E80FF91F1082019680329105A9F75F
:103E4000089590916602982B909366020895982F9A
:103E5000909580916602892380936602089510925E
:103E60006602089590916502982B909365020895DB
:103E7000982F90958091650289238093650208951B
:103E800010926502089590916402982B90936402B9
:103E90000895982F909580916402892380936402FD
:103EA0000895109264020895809343020895109239
:103EB000430208952091010130910201F9013196E8
:103EC000205E3F4F80E0919191118F5FE217F307E1
:103ED000D1F70895E0910101F0910201809166020D
:103EE0008083E0910101F09102018081909165024F
:103EF000892B8083E0910101F091020180819091F2
:103F00006402892B808390914302992361F0E091B0
:103F10000101F09102018081892B80830E945A1F48
:103F200081111092430280910101909102010C9441
:103F300046136DEE7EEF90E080E00E94E52D60E09C
:103F400082E090E00E94C72D60E083E090E00E9454
:103F5000C72D60E084E090E00E94C72D60E085E01E
:103F600090E00E94C72D60E086E090E00E94C72D9F
:103F700040E050E0BA0188E090E00C94D92D90E048
:103F800080E00E94C12D9C0181E02D3E3E4F09F052
:103F900080E0089582E090E00C94B32D682F82E0D9
:103FA00090E00C94C72D83E090E00C94B32D682F23
:103FB00083E090E00C94C72D84E090E00C94B32D46
:103FC000682F84E090E00C94C72D86E090E00C947C
:103FD000B32D682F86E090E00C94C72D8091A70246
:103FE000843051F11092680288E190E020E40FB62D
:103FF000F894A895809360000FBE2093600080E045
:104000000E94D00A80E00E94EB0A83B7817F84601F
:1040100083BF83B7816083BF7894889583B78E7F91
:1040200083BF0FB6F894A895809160008861809353
:104030006000109260000FBE089508950895CF9318
:10404000DF9300D000D00F92CDB7DEB70E941D20C5
:104050000E94C80D0E941E201D828D810E94C10EEB
:10406000672B682B692B71F48D818F5F8D83863070
:10407000A1F780E00F900F900F900F900F90DF91BD
:10408000CF91089581E0F6CF0E9473180E94DB243F
:104090000E943A130C94EB0A1F921FB61F92112430
:1040A0008F939F93AF93BF9380916802811113C048
:1040B00080919C0290919D02A0919E02B0919F02DE
:1040C0004196A11DB11D80939C0290939D02A093E7
:1040D0009E02B0939F02BF91AF919F918F911F90CD
:1040E0001FBE1F90189582E084BD93E095BD9AEFA6
:1040F00097BD80936E0008952FB7F89480919C022D
:1041000090919D02A0919E02B0919F022FBF0895B1
:10411000CF92DF92EF92FF929C014FB7F89480917B
:104120009C0290919D02A0919E02B0919F024FBF70
:104130006C017D01EE24FF24A90170E060E0C4164B
:10414000D506E606F70638F0821B930BFF90EF903A
:10415000DF90CF9008950197F7CF1F921FB61F925F
:1041600011248F939F93AF93BF9380919C02909162
:104170009D02A0919E02B0919F020196A11DB11DCA
:1041800080939C0290939D02A0939E02B0939F0205
:10419000BF91AF919F918F911F901FBE1F90189557
:1041A0000E944929F8942FEF87EA91E62150804038
:1041B0009040E1F700C0000087E090EBDC018093C5
:1041C000B0029093B102A093B202B093B30288E11F
:1041D0009CE00FB6F894A895809360000FBE909372
:1041E0006000FFCFAF92BF92CF92DF92EF92FF922B
:1041F0000F931F93CF93C0E0A82EB12C8C2F0E9459
:10420000C10E6B017C0110E000E0D701C601002E59
:1042100004C0B695A795979587950A94D2F780FF25
:1042200013C0602F7C2F80E00E94EE0AA816B9060A
:1042300059F481E0CF911F910F91FF90EF90DF90A3
:10424000CF90BF90AF9008950F5F1F4F02311105BF
:10425000E1F6CF5FC63091F680E0ECCFCF93C82F68
:104260008CE20E94F220882321F08C2FCF910C94B5
:10427000F22080E0CF910895CF93DF9300D000D05B
:10428000CDB7DEB70E94BF1F811102C00E94991FE7
:1042900095E6998308C00E94C80D8FE39CE90197B9
:1042A000F1F700C00000A981A150A983A111F3CFAB
:1042B00089E20E942E21811110C18AE20E942E21E2
:1042C00081110E94991F85E00E942E2181110E9478
:1042D000D0200E94CA1F8093670287E00E942E218F
:1042E000882371F08BE10E942E21882309F4D1C02C
:1042F00090916702892F8D7F91FF82608093670282
:10430000809167020E94CE1F0E94DC1F90E0909374
:10431000A1028093A00280EE0E942E21882341F00A
:104320009091A002892F8E7F90FF81608093A002E0
:1043300089E30E942E21882341F09091A002892FC9
:104340008D7F91FF82608093A00282EE0E942E21D9
:10435000882341F09091A002892F8B7F92FF846087
:104360008093A00286EE0E942E21882341F0909136
:10437000A002892F877F93FF88608093A00283EE3D
:104380000E942E21882341F09091A002892F8F7ED8
:1043900094FF80618093A00285E30E942E218823F0
:1043A00041F09091A002892F8F7D95FF80628093CC
:1043B000A00281E30E942E21882341F09091A00267
:1043C000892F8F7B96FF80648093A00281E10E94F9
:1043D0002E21882341F09091A002892F97FB87F925
:1043E00080588093A0028091A0020E94E01F87E283
:1043F0000E942E2189838EE10E942E21882319F0AC
:10440000B981B260B9838FE10E942E21882319F00F
:1044100029812460298380E20E942E21882319F0BB
:1044200039813860398381E20E942E21882319F076
:1044300049814061498382E20E942E21882319F03C
:1044400059815062598383E20E942E21882319F0FA
:1044500089818064898384E20E942E218823B1F1BE
:1044600099819068998389810E94D71F3981232F70
:1044700030E050E040E029833A834B835C83CA01FB
:10448000B9010F900F900F900F90DF91CF910C9486
:10449000121C8EE00E942E21882339F09091670231
:1044A000892F8B7F92FF846029CF80E10E942E218B
:1044B00090916702882329F0892F877F93FF886076
:1044C0001DCF892F8E7F90FF816018CFA981A11108
:1044D000CACF0E94D31F282FCBCF0F900F900F90E1
:1044E0000F90DF91CF91089580916B0280FF12C0F1
:1044F0006091060185E0689FB0011124759567956C
:104500007595679560387105A8F561157105A1F17C
:10451000862F089581FF09C06091060185E0689F9C
:10452000B001112475956795EDCF6091060182FD6C
:104530000AC080916C028823D1F0909105016091AE
:104540000601891728F085E0689FB0011124DACFB1
:10455000869FB001112485E0869F9001879F300DD2
:104560001124692F70E0C9010E94912DCBCF65E025
:1045700070E0CECF8FE7089581E0089580916B02BF
:1045800080FF0CC06091040170E07595679575958A
:1045900067956115710549F1862F089581FF06C061
:1045A0006091040170E075956795F3CF6091040107
:1045B00082FD0BC090916C029923A1F060910301E0
:1045C00080910401961738F0682F70E0603871050B
:1045D00000F38FE70895899FC001112470E00E94C5
:1045E000912DF4CF61E070E0D7CF81E00895803F56
:1045F00031F40E947422819580936F020895813F67
:1046000019F40E947422F8CF823F31F40E94742280
:10461000819580936E020895833F19F40E9474225D
:10462000F8CF893F29F40E94BE228093700208953A
:104630008A3F21F40E94BE228195F7CF8B3F31F44F
:104640000E94BE2281958093710208958C3F19F4D7
:104650000E94BE22F8CF843F31F480916D028160C8
:1046600080936D020895853F21F480916D028260F0
:10467000F7CF863F21F480916D028460F1CF873FB0
:1046800021F480916D028860EBCF883F21F4809106
:104690006D028061E5CF8D3F31F480916B028160C6
:1046A00080936B0208958E3F21F480916B028260AB
:1046B000F7CF8F3FB9F780916B028460F1CF909173
:1046C0006E02803F41F480916F0287FD10926F026D
:1046D000992371F00895813F29F480916F02181693
:1046E000ACF3F6CF823F81F497FFF2CF10926E02C7
:1046F00080916F0290917002892B90917102892BA9
:1047000049F710926C020895833F19F4191674F357
:10471000DFCF893F39F4809170021816CCF61092E1
:104720007002D6CF8A3F29F48091700287FFD0CFE4
:10473000F6CF8B3F39F48091710287FFC9CF109279
:104740007102C6CF8C3F29F4809171021816BCF318
:10475000BFCF843F31F480916D028E7F80936D02D4
:10476000B7CF853F21F480916D028D7FF7CF863FD3
:1047700021F480916D028B7FF1CF873F21F48091EE
:104780006D02877FEBCF883F21F480916D028F7E91
:10479000E5CF8D3F31F480916B028E7F80936B0269
:1047A00097CF8E3F21F480916B028D7FF7CF8F3FA3
:1047B00009F08ECF80916B028B7FF0CF8DE692E077
:1047C0000E9451130E947C2090936A028093690298
:1047D00008951F93CF93DF9300D000D000D0CDB7C2
:1047E000DEB78091690290916A020E948820AC0134
:1047F00080916C022091070130E0811106C0209168
:1048000008019AE0299F900111244217530788F06C
:1048100020916E02A0916F02A98310917002B09155
:104820007102BE8321110FC09A2F912B9B2B09F08F
:10483000B2C026960FB6F894DEBF0FBECDBFDF9193
:10484000CF911F9108958F3F19F08F5F80936C0275
:10485000121624F40E94742280936E0280916E02DC
:1048600087FF05C00E947422819580936E02298182
:10487000121624F40E94742280936F0280916F02BA
:1048800087FF05C00E947422819580936F028091FA
:104890006E02882309F455C030916F023D833323A3
:1048A00009F44FC0282F880F330B440B550B298375
:1048B0003A834B835C83CA01B9010E94842C23E3B1
:1048C00033E343E35FE369837A838B839C8369816A
:1048D0007A818B819C810E94E82C69837A838B8307
:1048E0009C8369817A818B819C810E944C2C60938E
:1048F0006E028D81082E000C990BAA0BBB0B8983CD
:104900009A83AB83BC83BC01CD010E94842C23E33A
:1049100033E343E35FE369837A838B839C83698119
:104920007A818B819C810E94E82C69837A838B83B6
:104930009C8369817A818B819C810E944C2C60933D
:104940006F02111624F40E94BE228093700280919F
:10495000700287FF05C00E94BE228195809370027D
:104960009E81191624F40E94BE22809371028091C8
:10497000710287FF05C00E94BE228195809371025B
:1049800026960FB6F894DEBF0FBECDBFDF91CF9154
:104990001F910C94DE238F3F09F057CF68CF85E03D
:1049A000EDE6F2E0DF011D928A95E9F710926C02C4
:1049B00010926B0208950E94BF1F811102C00E94D5
:1049C000991F0E94E51F982F8093A202817090FF8B
:1049D00002C0892F86950C94D00A8091A202816032
:1049E0008093A2020E94E91F8091A20286950C94F6
:1049F000D00A8091A202982F9E7F79F082508093F6
:104A0000A2028E7F91E009F490E08091A20290FBD7
:104A100080F98093A2020E94E91F8091A2028695EC
:104A20000C94D00A9091A202892F8E7F90FF816012
:104A30008093A2020E94E91F9091A202892F8170A7
:104A400090FF02C0892F86950C94D00A8091A20213
:104A50008E5F8093A202982F9E7F19F081708093C1
:104A6000A2028091A2028E7F91E009F490E08091F1
:104A7000A20290FB80F98093A2020E94E91F80911C
:104A8000A20286950C94D00A9091A202292F269515
:104A90002827220F9170922B9093A2029E7F21E0F3
:104AA00009F420E08091A20220FB80F98093A20209
:104AB0000E94E91F8091A20286950C94D00A8091F1
:104AC00092020895CF93DF9300D00F92CDB7DEB757
:104AD0002091A702243019F523E029838A839B8340
:104AE0002093E9008FEF9091E800815095FD06C07A
:104AF00095ED9A95F1F700008111F5CF8091E800CE
:104B000085FF0DC050E040E063E070E0CE0101960B
:104B10000E94C1278091E8008E778093E8000F9073
:104B20000F900F90DF91CF910895CF93DF9300D036
:104B30000F92CDB7DEB79C018091A702843031F58A
:104B400082E08983205831093B832A8383E0809364
:104B5000E9008FEF9091E800815095FD06C095ED3A
:104B60009A95F1F700008111F5CF8091E80085FF5B
:104B70000DC050E040E063E070E0CE0101960E947D
:104B8000C1278091E8008E778093E8000F900F9006
:104B90000F90DF91CF9108952091A7022430F1F476
:104BA00022E02093E9002FEF3091E800215035FDFD
:104BB00006C035ED3A95F1F700002111F5CF2091AF
:104BC000E80025FF0BC050E040E065E070E00E9487
:104BD000C1278091E8008E778093E8000895CF93F5
:104BE000DF93D82FC92F8091A7028430F1F49091E0
:104BF00013019923E9F09091A00297FF19C08093C7
:104C0000E9008FEF9091E800815095FD06C095E195
:104C10009A95F1F700008111F5CF8091E80050E0FE
:104C200040E060E270E085FD1AC0DF91CF91089509
:104C300081E08093E9008FEF9091E800815095FD2D
:104C400006C095ED9A95F1F700008111F5CF80919E
:104C5000E80085FFEACF50E040E068E070E08D2F8B
:104C60009C2F0E94C1278091E8008E778093E800F6
:104C700080E2ED2FFC2FA2E7B2E001900D928A9521
:104C8000E1F7D3CF8091A602811109C00E94492982
:104C90000E94AB298091E20084608093E200089535
:104CA0001092A6020895089508950C94442042E0BD
:104CB00061EC81E00E94C52842E061EC82E00E9444
:104CC000C52842E061EC83E00E94C52842E261EC25
:104CD00084E00C94C5288091A902893089F148F4B8
:104CE000823009F494C0833009F44FC0813041F020
:104CF00008958A3009F47BC08B3009F461C00895AF
:104D00008091A802813A09F03FC08091E800877F36
:104D10008093E8008091AC029091AD02892B61F400
:104D200060E282E792E070E00E9410288091E80043
:104D30008B778093E800089560E090E080E0F3CF07
:104D40008091A802813201F58091AC029091AD0270
:104D5000009711F00397C1F48091E800877F80935A
:104D6000E8008091E80082FF0BC08091F100809301
:104D700092028091E8008B778093E8000C94F928E8
:104D80008091A7028111EDCF08958091A802813A08
:104D9000D9F78091AC029091AD02892BA9F780914F
:104DA000E800877F8093E8008091E80080FFFCCFD7
:104DB000809113018093F1008091E8008E77DCCF21
:104DC0008091A802813201F78091AC029091AD02EE
:104DD000892BD1F68091E800877F8093E8000E94BC
:104DE000F9288091AA02809313010C947318809182
:104DF000A802813249F68091E800877F8093E8001D
:104E00000E94F9288091AB028093930208958091CB
:104E1000A802813A09F0B8CF8091E800877F80939B
:104E2000E8008091E80080FFFCCF80919302C2CF20
:104E300084B7877F84BF0FB6F894A89580916000EF
:104E4000886180936000109260000FBE80E88093BC
:104E50006100109261000E9489130E9449290E94FA
:104E6000AB298091E20084608093E20078940E94F4
:104E7000312C0E948B1389E091E00E9435138091C0
:104E8000A702853029F00E9495130E940213F7CFE4
:104E90000E94EE1F8091A502882389F30E941F20A3
:104EA000882369F30E94AB27EACF9C01DA01892F9E
:104EB000992783309105C1F068F48130910509F498
:104EC00045C0029761F48DE690E025E530E12D9331
:104ED0003C93089581329105E1F0829739F190E099
:104EE00080E030E020E0F3CFC9019927213059F06C
:104EF0008230910559F0E1E5F0E1892B81F7849149
:104F000090E09F01E4CFE9E3F0E1F9CFE5E2F0E1E1
:104F1000F6CF643020F7E62FF0E0EE0FFF1FE85CDD
:104F2000FE4F2081318189E090E0D1CF6430B8F626
:104F300070E0FB01EE0FFF1FE05DFE4F208131812D
:104F4000645D7E4FFB01808190E0C1CF82E190E003
:104F500022EC30E1BCCF84E189BD86E189BD09B492
:104F600000FEFDCF8091D8008F7D8093D800809186
:104F7000E00082608093E0008091E00081FDFCCF42
:104F80000895AF92BF92CF92DF92FF920F931F933B
:104F9000CF93DF936C01EB018A010E941829F82E50
:104FA000811123C00115110539F0F801808191812B
:104FB000C81BD90BC80ED91EB12CA12C2097A9F063
:104FC0008091E80085FD22C08091E8008E77809373
:104FD000E80001151105A1F0F80180819181A80E6A
:104FE000B91EB182A08285E0F82E8F2DDF91CF917E
:104FF0001F910F91FF90DF90CF90BF90AF900895D9
:105000000E9418298823D1F2F82EEFCFF601819162
:105010006F018093F1002197FFEFAF1ABF0ACECF47
:10502000FC01CB012091AE023091AF022617370769
:1050300090F0009729F42091E8002E772093E80063
:1050400040E0009751F4411108C08091E80082FFD0
:1050500031C080E00895C901F3CF2091A702222337
:10506000A9F12530A9F12091E80023FD2DC0209160
:10507000E80022FDEACF2091E80020FFE2CF209156
:10508000F2003091F300009719F02830310558F004
:1050900041E02830310509F040E02091E8002E770A
:1050A0002093E800CECF41914093F10001972F5F0C
:1050B0003F4FE9CF8091A702882341F0853041F02E
:1050C0008091E80083FFC1CF81E0089582E00895D8
:1050D00083E00895FC01CB012091AE023091AF0234
:1050E0002617370790F0009729F42091E8002E77D3
:1050F0002093E80040E0009751F4411108C08091EE
:10510000E80082FF32C080E00895C901F3CF20910A
:10511000A7022223B1F12530B1F12091E80023FD4F
:105120002EC02091E80022FDEACF2091E80020FF68
:10513000E2CF2091F2003091F300009719F028306F
:10514000310558F041E02830310509F040E0209168
:10515000E8002E772093E800CECF44914093F100F1
:10516000319601972F5F3F4FE8CF8091A7028823A8
:1051700041F0853041F08091E80083FFC0CF81E0AD
:10518000089582E0089583E00895982F973028F0DD
:105190008F708093E90081E008959093E900242FB7
:1051A000762F50E0981731F07091EC002091ED00CF
:1051B0005091F00021FD02C09F5FE8CF3091EB00DD
:1051C0003E7F3093EB003091ED003D7F3093ED005A
:1051D0003091EB0031603093EB007093EC00209342
:1051E000ED005093F0002091EE0027FDE5CF80E028
:1051F00008958091A80287FF13C08091E80082FF84
:1052000006C08091E8008B778093E80004C080910D
:10521000A7028111F2CF08958091A7028823D9F3C4
:105220008091E80080FFF8CF8091E8008E77ECCF86
:105230002091E4003091E50095E6A9012091EC0071
:10524000822F817020FF06C08091E80080FF06C099
:1052500080E008952091E80022FD1AC08091A70205
:10526000882389F0853089F08091EB0085FD0FC09F
:105270002091E4003091E50042175307F9F2915074
:10528000E1F684E0089582E0089583E0089581E0E6
:1052900008950E94BA290E94C229E0EEF0E08081C0
:1052A00081608083E8EDF0E080818F77808319BC96
:1052B000A7EDB0E08C918E7F8C9380818F7E808370
:1052C0001092A60208950F931F93CF93DF930E942D
:1052D000BA290E94C229C8EDD0E088818F778883DF
:1052E00088818068888388818F7D8883E7EDF0E0FE
:1052F00080818068808319BC1092A7021092A3025B
:105300001092A5021092A40200EE10E0F801808134
:105310008B7F808388818160888342E060E080E0C9
:105320000E94C528E1EEF0E080818E7F8083E2EE6E
:10533000F0E0808181608083808188608083F801D3
:1053400080818E7F8083888180618883DF91CF9187
:105350001F910F910895E8EDF0E080818F7E8083AA
:10536000E7EDF0E080818160808381E08093A60298
:105370000C946329E8EDF0E080818C7F80831092AB
:10538000E20008951092DA001092E10008951F9251
:105390000F920FB60F9211240BB60F922F933F93DB
:1053A0004F935F936F937F938F939F93AF93BF932D
:1053B000EF93FF938091E10082FF0BC08091E200A8
:1053C00082FF07C08091E1008B7F8093E1000E9403
:1053D000302C8091DA0080FF19C08091D80080FFC6
:1053E00015C08091DA008E7F8093DA008091D90019
:1053F00080FF96C084E189BD86E189BD09B400FEC5
:10540000FDCF81E08093A7020E9442268091E100B7
:1054100080FF19C08091E20080FF15C08091E200FA
:105420008E7F8093E2008091E20080618093E200B1
:105430008091D80080628093D80019BC85E0809369
:10544000A7020E9454268091E10084FF29C0809128
:10545000E20084FF25C084E189BD86E189BD09B4ED
:1054600000FEFDCF8091D8008F7D8093D800809181
:10547000E1008F7E8093E1008091E2008F7E809337
:10548000E2008091E20081608093E2008091A302BB
:10549000882309F44BC084E08093A7020E9455261C
:1054A0008091E10083FF29C08091E20083FF25C045
:1054B0008091E100877F8093E10082E08093A702E2
:1054C0001092A3028091E1008E7F8093E100809191
:1054D000E2008E7F8093E2008091E2008061809301
:1054E000E20042E060E080E00E94C5288091F00088
:1054F00088608093F0000E945326FF91EF91BF9146
:10550000AF919F918F917F916F915F914F913F915B
:105510002F910F900BBE0F900FBE0F901F901895FC
:1055200019BC1092A7020E94502670CF8091E30010
:1055300087FD02C081E0B0CF83E0AECF1F920F9213
:105540000FB60F9211240BB60F922F933F934F93E8
:105550005F936F937F938F939F93AF93BF93CF93FB
:10556000DF93EF93FF93D091E900DF708091EC001F
:10557000C82FC17080FDC0E81092E9008091F00052
:10558000877F8093F00078940E94E62A1092E900C9
:105590008091F00088608093F000CD2BCF70C09395
:1055A000E900FF91EF91DF91CF91BF91AF919F9172
:1055B0008F917F916F915F914F913F912F910F90BC
:1055C0000BBE0F900FBE0F901F9018951F93CF9397
:1055D000DF93CDB7DEB7AA970FB6F894DEBF0FBE44
:1055E000CDBF88EA92E0FC0101962091F100208372
:1055F00022E0803B9207B9F70E946B268091E80079
:1056000083FF16C18091A8029091A9029A3008F0F8
:105610000FC1E92FF0E0E85DF14D0C94A52D803825
:1056200081F0823809F004C18091AC028F708093C0
:10563000E9008091EB0085FB882780F91092E90052
:1056400006C08091A4029091A50291118260909170
:10565000E800977F9093E8008093F1001092F100AA
:105660008091E8008E77E0C0882309F4CEC08230B4
:1056700009F0DEC08091AA028111D1C08091AC02F4
:105680008F7009F4D5C08093E9002091EB0020FFD2
:10569000C6C0933031F48091EB0080628093EB00C0
:1056A000BEC09091EB0090619093EB0021E030E060
:1056B00001C0220F8A95EAF72093EA001092EA00CF
:1056C0008091EB008860EACF8111B2C01091AA02EC
:1056D0001F778091E3008078812B8093E300809195
:1056E000E800877F8093E8000E94F9288091E80015
:1056F00080FFFCCF8091E30080688093E30082E02C
:10570000111183E08093A70293C08058823008F083
:105710008FC08091AA029091AB028C3D23E092074A
:10572000A1F583E08A838AE289834FB7F894DE018A
:10573000139620E03EE051E2E32FF0E05093570053
:10574000E49120FF03C0E295EF703F5FEF708E2F72
:1057500090E0EA30C0F0C7968D939D932F5F24317F
:1057600059F74FBF8091E800877F8093E8006AE295
:1057700070E0CE0101960E9410288091E8008B779E
:105780008093E80055C0C096E7CFAE014F5F5F4FF2
:105790006091AC020E945527BC01892B09F448C0D6
:1057A0008091E800877F8093E80089819A810E9438
:1057B0006A28E3CF8038E1F58091E800877F809305
:1057C000E8008091A3028093F1004ACF811130C09C
:1057D0009091AA02923060F58091E800877F8093D3
:1057E000E8009093A3020E94F9288091A3028823E5
:1057F00011F084E005C08091E30087FDFACF81E0DD
:105800008093A7020E94572613C08091AA0281307C
:1058100079F481E0933009F080E08093A502109242
:10582000E9008091E800877F8093E8000E94F928D2
:105830008091E80083FF0AC08091E800877F809311
:10584000E8008091EB0080628093EB00AA960FB68F
:10585000F894DEBF0FBECDBFDF91CF911F910895A9
:105860000895CF938091A7028823A1F0C091E90009
:10587000CF709091EC00892F817090FD80E8C82B4B
:105880001092E9008091E80083FD0E94E62ACF7023
:10589000C093E900CF9108950E94532C6894B111F0
:1058A0000C94E22C08950E94C72C88F09F5798F022
:1058B000B92F9927B751B0F0E1F0660F771F881F15
:1058C000991F1AF0BA95C9F714C0B13091F00E942F
:1058D000E12CB1E008950C94E12C672F782F8827F4
:1058E000B85F39F0B93FCCF3869577956795B39556
:1058F000D9F73EF490958095709561957F4F8F4FC5
:105900009F4F0895E89409C097FB3EF490958095C9
:10591000709561957F4F8F4F9F4F9923A9F0F92F75
:1059200096E9BB279395F695879577956795B795F3
:10593000F111F8CFFAF4BB0F11F460FF1BC06F5FD9
:105940007F4F8F4F9F4F16C0882311F096E911C0EB
:10595000772321F09EE8872F762F05C0662371F00C
:1059600096E8862F70E060E02AF09A95660F771F20
:10597000881FDAF7880F9695879597F9089557FD50
:105980009058440F551F59F05F3F71F04795880FAD
:1059900097FB991F61F09F3F79F087950895121644
:1059A00013061406551FF2CF4695F1DF08C01616F0
:1059B00017061806991FF1CF8695710561050894A1
:1059C0000895E894BB2766277727CB0197F90895B8
:1059D0000E94FB2C0C946C2D0E945E2D38F00E94CE
:1059E000652D20F0952311F00C94552D0C945B2D12
:1059F00011240C94E22C0E94BF2C70F3959FC1F3EC
:105A0000950F50E0551F629FF001729FBB27F00D6C
:105A1000B11D639FAA27F00DB11DAA1F649F6627C1
:105A2000B00DA11D661F829F2227B00DA11D621F10
:105A3000739FB00DA11D621F839FA00D611D221FCA
:105A4000749F3327A00D611D231F849F600D211DAE
:105A5000822F762F6A2F11249F5750409AF0F1F031
:105A600088234AF0EE0FFF1FBB1F661F771F881F9A
:105A700091505040A9F79E3F510580F00C94552D50
:105A80000C94E22C5F3FE4F3983ED4F3869577952F
:105A90006795B795F795E7959F5FC1F7FE2B880F40
:105AA000911D9695879597F9089597F99F6780E8D6
:105AB00070E060E008959FEF80EC089500240A9460
:105AC0001616170618060906089500240A941216D9
:105AD0001306140605060895092E0394000C11F40C
